:1000000005308A00832D0000FF00030E8301A1004C
:100010000A08A0008A010408A2007708A300780853
:10002000A4007908A5007A08A600831383128C30F7
:100030008400801E1D288C1A2E2822088400230884
:10004000F7002408F8002508F9002608FA0020081F
:100050008A00210E8300FF0E7F0E09008A110A120A
:100060001A2A0A108A100A11383E03188A0A8200D6
:1000700000340034003400340034003400345F3481
:1000800000340034003407340034073400341434AE
:100090007F3414347F34143424342A347F342A34A3
:1000A000123423341334083464346234363449341B
:1000B00056342034503400340834073403340034C8
:1000C00000341C34223441340034003441342234AE
:1000D0001C3400342A341C347F341C342A34083451
:1000E00008343E34083408340034803470343034FA
:1000F0000034083408340834083408340034003438
:100100006034603400342034103408340434023451
:100110003E345134493445343E34003442347F3423
:10012000403400347234493449344934463421343B
:10013000413449344D3433341834143412347F3458
:100140001034273445344534453439343C344A344A
:1001500049344934313441342134113409340734B9
:1001600036344934493449343634463449344934D0
:1001700029341E3400340034143400340034003484
:10018000403434340034003400340834143422341D
:1001900041341434143414341434143400344134D9
:1001A0002234143408340234013459340934063406
:1001B0003E3441345D3459344E347C34123411347D
:1001C00012347C347F3449344934493436343E3433
:1001D00041344134413422347F3441344134413458
:1001E0003E347F3449344934493441347F3409340E
:1001F0000934093401343E344134413451347334C8
:100200007F340834083408347F34003441347F3478
:10021000413400342034403441343F3401347F349D
:1002200008341434223441347F3440344034403470
:1002300040347F3402341C3402347F347F3404343D
:10024000083410347F343E344134413441343E3438
:100250007F3409340934093406343E34413451348E
:1002600021345E347F3409341934293446340A1475
:100270008A100A113E3E03188A0A82002634493445
:10028000493449343234033401347F340134033483
:100290003F344034403440343F341F342034403401
:1002A00020341F343F344034383440343F346334D6
:1002B0001434083414346334033404347834043488
:1002C00003346134593449344D34433400347F3479
:1002D000413441344134023404340834103420347D
:1002E00000344134413441347F3404340234013425
:1002F0000234043440344034403440344034003418
:1003000003340734083400342034543454347834FB
:1003100040347F342834443444343834383444341A
:1003200044344434283438344434443428347F3416
:1003300038345434543454341834003408347E344B
:10034000093402341834A434A4349C3478347F340F
:100350000834043404347834003444347D34403474
:1003600000342034403440343D3400347F34103481
:10037000283444340034003441347F344034003471
:100380007C3404347834043478347C3408340434D1
:100390000434783438344434443444343834FC3409
:1003A00018342434243418341834243424341834BD
:1003B000FC347C3408340434043408344834543471
:1003C000543454342434043404343F344434243412
:1003D0003C344034403420347C341C3420344034A9
:1003E00020341C343C344034303440343C344434C5
:1003F00028341034283444344C34903490349034BD
:100400007C344434643454344C344434003408343C
:10041000363441340034003400347734003400344E
:1004200000344134363408340034023401340234A8
:10043000043402348C1E1A2A1A08AD008C128A1158
:100440000A121D28D037F334F4346F37A012EC3A77
:1004500000000830F80000008711A7112708831654
:10046000870000008312D10D0712031C3D2A2716B6
:10047000270883168700412A83122712270883162C
:10048000870000008312A7152708831687008312B0
:10049000871D482AF80B2B2A00008711A71127086F
:1004A000831687000000831227162708831687000B
:1004B000000000008312A715270883168700831207
:1004C000871D602AF8010000071A78148711A71108
:1004D000270883168700831207122712270883161E
:1004E000870083120800D0018316071600008715C5
:1004F000000083120712831607120000831287116F
:100500008316871183122808D10029225008D100B0
:1005100029224F08D10029228316071200008715CF
:100520008312871D912A0000952A00008316071662
:100530000000831208004208A9004308A800AE305A
:10054000CF007322D530CF0073228030CF007322CA
:10055000A830CF0073223F30CF007322D330CF00BA
:100560007322CF0173224030CF0073228D30CF0031
:100570007322420BBF2A1030CF007322C22A1430DC
:10058000CF0073222030CF007322CF017322A1301D
:10059000CF007322C830CF007322DA30CF0073222D
:1005A0001230CF0073228130CF007322420BDC2A3D
:1005B0009F30CF007322DF2ACF30CF007322D93093
:1005C000CF007322420BE82A2230CF007322EB2A9D
:1005D000F130CF007322DB30CF0073224030CF00E8
:1005E0007322A430CF007322A630CF0073222E30A6
:1005F000CF007322AF30CF0073228A110A12EE2D82
:100600002130CF007322CF0173227F30CF007322BD
:100610002230CF007322CF0173220730CF00732224
:100620008316071600008715000083120712831631
:10063000071200008312871183168711831228087E
:10064000D10029224030D1002922C301C201430830
:10065000033C031C312BD1012922C20A0319C30A0E
:10066000272B83160712000087158312871D362B50
:1006700000003A2B000083160716000083120800C2
:10068000C5080319492B3708033C0319492BB70A3E
:100690005B2BC50803194E2BB7015B2BC508031D47
:1006A000562BB7080319562BB7035B2BC508031D40
:1006B0005B2B0330B7003330370784008313000E01
:1006C000C600F030C6052F302E07840083130008C3
:1006D000C6044608860008004530840083130008DD
:1006E0000319802B0130F800F701F70B752BF80B7D
:1006F000742B4A30F700F70B7B2B7E2B800B722B71
:100700000800C20803198A2B2E08033C03198A2B00
:10071000AE0A9C2BC20803198F2BAE019C2BC2087A
:10072000031D972BAE080319972BAE039C2BC20811
:10073000031D9C2B0330AE00333037078400831336
:10074000000EC300F030C3052F302E078400831342
:100750000008C3044308860008001230C202031CCC
:10076000C02B423084008313FC3080050310800CC2
:10077000800C00080319C02BBE2B0000800BBD2B82
:10078000080038084202031DC92B39084302031927
:10079000F02B39084302031CD52B031DD32B420831
:1007A00038020318D52B0130D62B0030C400440B7F
:1007B000E22B4408C5004023B80A0319B90A3230B5
:1007C000C5006C23C408031DEF2B4408C50040235B
:1007D00038080319B903B8033230C5006C23F22B73
:1007E0002130AD0008004208153C031CFA2B4308D9
:1007F000083C031CFF2B4208AA004308AB008A11E7
:100800000A12672EF701F801500803105118F70774
:10081000F70CF80CD118F707F70CF80C5119F7077B
:10082000F70CF80CD119F707F70CF80C511AF70769
:10083000F70CF80CD11AF707F70CF80C511BF70757
:10084000F70CF80CD11BF707F70CF80C08004B0855
:100850001F3C03182F2C4B087E3C0318312C3F30D3
:10086000CB002130CF00732201302A02CE000630A7
:10087000D0004E08D10002247808CE00CF007322A9
:1008800001302A02CE000630D0004E08D1000224EA
:1008900004307807CE00CF0073222230CF007322BD
:1008A00001302B02CE00CF00732201302B02CE008C
:1008B000CF007322831607160000871500008312ED
:1008C00007128316071200008312871183168711FF
:1008D00083122808D10029224030D1002922CD01DD
:1008E0004D08043C031C962C4B08523C031C852CE1
:1008F00020304B02CF00D0000530D10002244D083B
:1009000078073120F800CC00912C53304B02CF00F7
:10091000D0000530D10002244D0878073721F800B7
:10092000CC004C08D1002922CD0A702C8316071266
:10093000000087158312871D9B2C00009F2C000050
:1009400083160716000083122A08CE001530CF0048
:100950004F08F8014E020318B02C4E08F700BC2CCB
:10096000F7010830D000CE0DF70D4F0877020318BD
:10097000F700F80DD00BB32C01307707AA002C1C20
:10098000C72C2A0BC72C2B080739013EAB000800E7
:100990000B08C3008B13831603178C170C1400006D
:1009A00000000318FA2C83120C087F390313C400CB
:1009B00003170D080313C50003170F080313C60020
:1009C0004408CB002724450803178D00031346086D
:1009D00003178F0083168C170C140000000083127D
:1009E0000313C20BF42CF72C83160317FA2C192DC2
:1009F0008316031783120C0D0E0D7F390313C400E9
:100A000003170D080313C50003170F080313C600CF
:100A10004408CB002724450803178D00031346081C
:100A200003178F008D0A03198F0A03100313C20BDB
:100A3000CB2CC31B8B178A110A12712ECA01040812
:100A4000C9004A10831B4A14430EF038C500C5077D
:100A5000E23EC600323EC80043080F39C607C6074B
:100A6000C807E93EC700C707C707420E0F39C707C7
:100A7000C807C70DC80DC809C80D42080F39C807F7
:100A8000C50D0730C4000A30C807C703031C442D36
:100A9000C707C603031C482DC607C503031C4C2DFE
:100AA000C507C403031C502D443084008313073052
:100AB00049054913840748300402031949170008FF
:100AC000F700031D6B2D491B6B2D491A7D2DC9198C
:100AD0006B2D20306E2DC91549123030F707C30138
:100AE0000408C2004310831B43147708CB0027245B
:100AF00042088400831343188317840A491F5B2D1F
:100B00008A110A12782EFF30A70083160317871167
:100B1000193003139900A630980090308312980082
:100B20000130AA00AB002C14AD01AE01B7017F303B
:100B3000B900FF30B800831603170908C0398900CF
:100B400003131F129F1200300317880083128701BE
:100B50008801890183131F30830508300313AF0018
:100B60000430B0000230B1000130B2000A30B300EE
:100B70000630B4000530B5000930B6007530BA0053
:100B80007930BB00A630BC007B30BD00D130BE0048
:100B90007D30BF00FF30C0007F30C100FF308316C2
:100BA000850000308600FF30870083121F139F17D7
:100BB00083169F1783121F14831603170908C03961
:100BC000890003131F129F122B3003178800023075
:100BD00083120313C2007830C3009B2A00238316BC
:100BE00003178711193003139900A630980090302D
:100BF00083129800C0308B0483168C1683122D0844
:100C0000553C031D0C2E0130C5004023B80A0319C2
:100C1000B90A2330C5006C232D08443C031D192E4E
:100C2000C501402338080319B903B8032330C500B0
:100C30006C232D084F3C031D262E0130C20081235A
:100C40000230C5006C23C830C200AD232D08433CE0
:100C5000031D322EC20181230230C5006C23C8302F
:100C6000C200AD232D08503C031D3A2E7F30B90041
:100C7000FF30B8002D08313C031D432E3B08C30054
:100C80003A08C200C1232D08323C031D4C2E3D08FA
:100C9000C3003C08C200C1232D08333C031D552E60
:100CA0003F08C3003E08C200C1232D08343C031D89
:100CB0005E2E4108C3004008C200C1232D08213C1C
:100CC000031D7A2E00230130C200C300F32B223013
:100CD00003178D0002308F00031009300313C20088
:100CE000C82C103084003908C3003808C2001E2DFB
:080CF0003030AD00FF2D630060
:04400E00F12CFF3F53
:00000001FF
;PIC16F887
;CRC=F074  CREATED="25-Dec-23 23:39"
